{
  "contractName": "Ktoken",
  "abi": [
    {
      "inputs": [],
      "stateMutability": "nonpayable",
      "type": "constructor"
    },
    {
      "anonymous": false,
      "inputs": [
        {
          "indexed": true,
          "internalType": "address",
          "name": "tokenOwner",
          "type": "address"
        },
        {
          "indexed": true,
          "internalType": "address",
          "name": "spender",
          "type": "address"
        },
        {
          "indexed": false,
          "internalType": "uint256",
          "name": "tokens",
          "type": "uint256"
        }
      ],
      "name": "Approval",
      "type": "event"
    },
    {
      "anonymous": false,
      "inputs": [
        {
          "indexed": true,
          "internalType": "address",
          "name": "from",
          "type": "address"
        },
        {
          "indexed": true,
          "internalType": "address",
          "name": "to",
          "type": "address"
        },
        {
          "indexed": false,
          "internalType": "uint256",
          "name": "tokens",
          "type": "uint256"
        }
      ],
      "name": "Transfer",
      "type": "event"
    },
    {
      "anonymous": false,
      "inputs": [
        {
          "indexed": false,
          "internalType": "address",
          "name": "reciever",
          "type": "address"
        },
        {
          "indexed": false,
          "internalType": "uint256",
          "name": "amount",
          "type": "uint256"
        }
      ],
      "name": "_mint",
      "type": "event"
    },
    {
      "inputs": [],
      "name": "INITIAL_SUPPLY",
      "outputs": [
        {
          "internalType": "uint256",
          "name": "",
          "type": "uint256"
        }
      ],
      "stateMutability": "view",
      "type": "function",
      "constant": true
    },
    {
      "inputs": [],
      "name": "decimals",
      "outputs": [
        {
          "internalType": "uint8",
          "name": "",
          "type": "uint8"
        }
      ],
      "stateMutability": "view",
      "type": "function",
      "constant": true
    },
    {
      "inputs": [],
      "name": "name",
      "outputs": [
        {
          "internalType": "string",
          "name": "",
          "type": "string"
        }
      ],
      "stateMutability": "view",
      "type": "function",
      "constant": true
    },
    {
      "inputs": [],
      "name": "symbol",
      "outputs": [
        {
          "internalType": "string",
          "name": "",
          "type": "string"
        }
      ],
      "stateMutability": "view",
      "type": "function",
      "constant": true
    },
    {
      "inputs": [],
      "name": "totalSupply",
      "outputs": [
        {
          "internalType": "uint256",
          "name": "",
          "type": "uint256"
        }
      ],
      "stateMutability": "view",
      "type": "function",
      "constant": true
    },
    {
      "inputs": [
        {
          "internalType": "address",
          "name": "tokenOwner",
          "type": "address"
        }
      ],
      "name": "balanceOf",
      "outputs": [
        {
          "internalType": "uint256",
          "name": "",
          "type": "uint256"
        }
      ],
      "stateMutability": "view",
      "type": "function",
      "constant": true
    },
    {
      "inputs": [
        {
          "internalType": "address",
          "name": "receiver",
          "type": "address"
        },
        {
          "internalType": "uint256",
          "name": "numTokens",
          "type": "uint256"
        }
      ],
      "name": "transfer",
      "outputs": [
        {
          "internalType": "bool",
          "name": "",
          "type": "bool"
        }
      ],
      "stateMutability": "nonpayable",
      "type": "function"
    },
    {
      "inputs": [
        {
          "internalType": "address",
          "name": "delegate",
          "type": "address"
        },
        {
          "internalType": "uint256",
          "name": "numTokens",
          "type": "uint256"
        }
      ],
      "name": "approve",
      "outputs": [
        {
          "internalType": "bool",
          "name": "",
          "type": "bool"
        }
      ],
      "stateMutability": "nonpayable",
      "type": "function"
    },
    {
      "inputs": [
        {
          "internalType": "address",
          "name": "owner",
          "type": "address"
        },
        {
          "internalType": "address",
          "name": "delegate",
          "type": "address"
        }
      ],
      "name": "allowance",
      "outputs": [
        {
          "internalType": "uint256",
          "name": "",
          "type": "uint256"
        }
      ],
      "stateMutability": "view",
      "type": "function",
      "constant": true
    },
    {
      "inputs": [
        {
          "internalType": "address",
          "name": "owner",
          "type": "address"
        },
        {
          "internalType": "address",
          "name": "buyer",
          "type": "address"
        },
        {
          "internalType": "uint256",
          "name": "numTokens",
          "type": "uint256"
        }
      ],
      "name": "transferFrom",
      "outputs": [
        {
          "internalType": "bool",
          "name": "",
          "type": "bool"
        }
      ],
      "stateMutability": "nonpayable",
      "type": "function"
    },
    {
      "inputs": [
        {
          "internalType": "address",
          "name": "receiver",
          "type": "address"
        },
        {
          "internalType": "uint256",
          "name": "amount",
          "type": "uint256"
        }
      ],
      "name": "mint",
      "outputs": [
        {
          "internalType": "bool",
          "name": "",
          "type": "bool"
        }
      ],
      "stateMutability": "nonpayable",
      "type": "function"
    },
    {
      "inputs": [
        {
          "internalType": "address",
          "name": "newAdmin",
          "type": "address"
        }
      ],
      "name": "updateAdmin",
      "outputs": [
        {
          "internalType": "bool",
          "name": "",
          "type": "bool"
        }
      ],
      "stateMutability": "nonpayable",
      "type": "function"
    },
    {
      "inputs": [],
      "name": "getSymbol",
      "outputs": [
        {
          "internalType": "string",
          "name": "",
          "type": "string"
        }
      ],
      "stateMutability": "pure",
      "type": "function",
      "constant": true
    },
    {
      "inputs": [],
      "name": "getName",
      "outputs": [
        {
          "internalType": "string",
          "name": "",
          "type": "string"
        }
      ],
      "stateMutability": "pure",
      "type": "function",
      "constant": true
    }
  ],
  "bytecode": "0x60806040526a084595161401484a000000600055731bf87d4d8049aed774fe118971e87a315819e772600460006101000a81548173ffffffffffffffffffffffffffffffffffffffff021916908373ffffffffffffffffffffffffffffffffffffffff16021790555034801561007457600080fd5b50600054600381905550600354600160003373ffffffffffffffffffffffffffffffffffffffff1673ffffffffffffffffffffffffffffffffffffffff16815260200190815260200160002081905550611281806100d36000396000f3fe608060405234801561001057600080fd5b50600436106100ea5760003560e01c8063313ce5671161008c57806395d89b411161006657806395d89b4114610263578063a9059cbb14610281578063dd62ed3e146102b1578063e2f273bd146102e1576100ea565b8063313ce567146101e557806340c10f191461020357806370a0823114610233576100ea565b806317d7de7c116100c857806317d7de7c1461015b57806318160ddd1461017957806323b872dd146101975780632ff2e9dc146101c7576100ea565b806306fdde03146100ef578063095ea7b31461010d578063150704011461013d575b600080fd5b6100f7610311565b6040516101049190611037565b60405180910390f35b61012760048036038101906101229190610f02565b61034a565b604051610134919061101c565b60405180910390f35b61014561043c565b6040516101529190611037565b60405180910390f35b610163610479565b6040516101709190611037565b60405180910390f35b6101816104b6565b60405161018e9190611079565b60405180910390f35b6101b160048036038101906101ac9190610eb3565b6104c0565b6040516101be919061101c565b60405180910390f35b6101cf610840565b6040516101dc9190611079565b60405180910390f35b6101ed610846565b6040516101fa9190611094565b60405180910390f35b61021d60048036038101906102189190610f02565b61084b565b60405161022a919061101c565b60405180910390f35b61024d60048036038101906102489190610e4e565b6109b7565b60405161025a9190611079565b60405180910390f35b61026b610a00565b6040516102789190611037565b60405180910390f35b61029b60048036038101906102969190610f02565b610a39565b6040516102a8919061101c565b60405180910390f35b6102cb60048036038101906102c69190610e77565b610c20565b6040516102d89190611079565b60405180910390f35b6102fb60048036038101906102f69190610e4e565b610ca7565b604051610308919061101c565b60405180910390f35b6040518060400160405280600681526020017f4b746f6b656e000000000000000000000000000000000000000000000000000081525081565b600081600260003373ffffffffffffffffffffffffffffffffffffffff1673ffffffffffffffffffffffffffffffffffffffff16815260200190815260200160002060008573ffffffffffffffffffffffffffffffffffffffff1673ffffffffffffffffffffffffffffffffffffffff168152602001908152602001600020819055508273ffffffffffffffffffffffffffffffffffffffff163373ffffffffffffffffffffffffffffffffffffffff167f8c5be1e5ebec7d5bd14f71427d1e84f3dd0314c0f7b2291e5b200ac8c7c3b9258460405161042a9190611079565b60405180910390a36001905092915050565b60606040518060400160405280600681526020017f4b746f6b656e0000000000000000000000000000000000000000000000000000815250905090565b60606040518060400160405280600681526020017f4b746f6b656e0000000000000000000000000000000000000000000000000000815250905090565b6000600354905090565b6000600160008573ffffffffffffffffffffffffffffffffffffffff1673ffffffffffffffffffffffffffffffffffffffff1681526020019081526020016000205482111561050e57600080fd5b600260008573ffffffffffffffffffffffffffffffffffffffff1673ffffffffffffffffffffffffffffffffffffffff16815260200190815260200160002060003373ffffffffffffffffffffffffffffffffffffffff1673ffffffffffffffffffffffffffffffffffffffff1681526020019081526020016000205482111561059757600080fd5b6105e982600160008773ffffffffffffffffffffffffffffffffffffffff1673ffffffffffffffffffffffffffffffffffffffff16815260200190815260200160002054610d8590919063ffffffff16565b600160008673ffffffffffffffffffffffffffffffffffffffff1673ffffffffffffffffffffffffffffffffffffffff168152602001908152602001600020819055506106bb82600260008773ffffffffffffffffffffffffffffffffffffffff1673ffffffffffffffffffffffffffffffffffffffff16815260200190815260200160002060003373ffffffffffffffffffffffffffffffffffffffff1673ffffffffffffffffffffffffffffffffffffffff16815260200190815260200160002054610d8590919063ffffffff16565b600260008673ffffffffffffffffffffffffffffffffffffffff1673ffffffffffffffffffffffffffffffffffffffff16815260200190815260200160002060003373ffffffffffffffffffffffffffffffffffffffff1673ffffffffffffffffffffffffffffffffffffffff1681526020019081526020016000208190555061078d82600160008673ffffffffffffffffffffffffffffffffffffffff1673ffffffffffffffffffffffffffffffffffffffff16815260200190815260200160002054610dd290919063ffffffff16565b600160008573ffffffffffffffffffffffffffffffffffffffff1673ffffffffffffffffffffffffffffffffffffffff168152602001908152602001600020819055508273ffffffffffffffffffffffffffffffffffffffff168473ffffffffffffffffffffffffffffffffffffffff167fddf252ad1be2c89b69c2b068fc378daa952ba7f163c4a11628f55a4df523b3ef8460405161082d9190611079565b60405180910390a3600190509392505050565b60005481565b601281565b600033600460009054906101000a900473ffffffffffffffffffffffffffffffffffffffff1673ffffffffffffffffffffffffffffffffffffffff168173ffffffffffffffffffffffffffffffffffffffff16146108de576040517f08c379a00000000000000000000000000000000000000000000000000000000081526004016108d590611059565b60405180910390fd5b61093083600160008773ffffffffffffffffffffffffffffffffffffffff1673ffffffffffffffffffffffffffffffffffffffff16815260200190815260200160002054610dd290919063ffffffff16565b600160008673ffffffffffffffffffffffffffffffffffffffff1673ffffffffffffffffffffffffffffffffffffffff168152602001908152602001600020819055507f4e6ec2477b215d44bbbdd0f5815b8827188f1eb827c01cc00f7f983582322afa84846040516109a4929190610ff3565b60405180910390a1600191505092915050565b6000600160008373ffffffffffffffffffffffffffffffffffffffff1673ffffffffffffffffffffffffffffffffffffffff168152602001908152602001600020549050919050565b6040518060400160405280600681526020017f4b746f6b656e000000000000000000000000000000000000000000000000000081525081565b6000600160003373ffffffffffffffffffffffffffffffffffffffff1673ffffffffffffffffffffffffffffffffffffffff16815260200190815260200160002054821115610a8757600080fd5b610ad982600160003373ffffffffffffffffffffffffffffffffffffffff1673ffffffffffffffffffffffffffffffffffffffff16815260200190815260200160002054610d8590919063ffffffff16565b600160003373ffffffffffffffffffffffffffffffffffffffff1673ffffffffffffffffffffffffffffffffffffffff16815260200190815260200160002081905550610b6e82600160008673ffffffffffffffffffffffffffffffffffffffff1673ffffffffffffffffffffffffffffffffffffffff16815260200190815260200160002054610dd290919063ffffffff16565b600160008573ffffffffffffffffffffffffffffffffffffffff1673ffffffffffffffffffffffffffffffffffffffff168152602001908152602001600020819055508273ffffffffffffffffffffffffffffffffffffffff163373ffffffffffffffffffffffffffffffffffffffff167fddf252ad1be2c89b69c2b068fc378daa952ba7f163c4a11628f55a4df523b3ef84604051610c0e9190611079565b60405180910390a36001905092915050565b6000600260008473ffffffffffffffffffffffffffffffffffffffff1673ffffffffffffffffffffffffffffffffffffffff16815260200190815260200160002060008373ffffffffffffffffffffffffffffffffffffffff1673ffffffffffffffffffffffffffffffffffffffff16815260200190815260200160002054905092915050565b600033600460009054906101000a900473ffffffffffffffffffffffffffffffffffffffff1673ffffffffffffffffffffffffffffffffffffffff168173ffffffffffffffffffffffffffffffffffffffff1614610d3a576040517f08c379a0000000000000000000000000000000000000000000000000000000008152600401610d3190611059565b60405180910390fd5b82600460006101000a81548173ffffffffffffffffffffffffffffffffffffffff021916908373ffffffffffffffffffffffffffffffffffffffff1602179055506001915050919050565b600082821115610dbe577f4e487b7100000000000000000000000000000000000000000000000000000000600052600160045260246000fd5b8183610dca9190611121565b905092915050565b6000808284610de191906110cb565b905083811015610e1a577f4e487b7100000000000000000000000000000000000000000000000000000000600052600160045260246000fd5b8091505092915050565b600081359050610e338161121d565b92915050565b600081359050610e4881611234565b92915050565b600060208284031215610e6057600080fd5b6000610e6e84828501610e24565b91505092915050565b60008060408385031215610e8a57600080fd5b6000610e9885828601610e24565b9250506020610ea985828601610e24565b9150509250929050565b600080600060608486031215610ec857600080fd5b6000610ed686828701610e24565b9350506020610ee786828701610e24565b9250506040610ef886828701610e39565b9150509250925092565b60008060408385031215610f1557600080fd5b6000610f2385828601610e24565b9250506020610f3485828601610e39565b9150509250929050565b610f4781611155565b82525050565b610f5681611167565b82525050565b6000610f67826110af565b610f7181856110ba565b9350610f818185602086016111aa565b610f8a8161120c565b840191505092915050565b6000610fa26016836110ba565b91507f496e76616c69642061646d696e206164647265737321000000000000000000006000830152602082019050919050565b610fde81611193565b82525050565b610fed8161119d565b82525050565b60006040820190506110086000830185610f3e565b6110156020830184610fd5565b9392505050565b60006020820190506110316000830184610f4d565b92915050565b600060208201905081810360008301526110518184610f5c565b905092915050565b6000602082019050818103600083015261107281610f95565b9050919050565b600060208201905061108e6000830184610fd5565b92915050565b60006020820190506110a96000830184610fe4565b92915050565b600081519050919050565b600082825260208201905092915050565b60006110d682611193565b91506110e183611193565b9250827fffffffffffffffffffffffffffffffffffffffffffffffffffffffffffffffff03821115611116576111156111dd565b5b828201905092915050565b600061112c82611193565b915061113783611193565b92508282101561114a576111496111dd565b5b828203905092915050565b600061116082611173565b9050919050565b60008115159050919050565b600073ffffffffffffffffffffffffffffffffffffffff82169050919050565b6000819050919050565b600060ff82169050919050565b60005b838110156111c85780820151818401526020810190506111ad565b838111156111d7576000848401525b50505050565b7f4e487b7100000000000000000000000000000000000000000000000000000000600052601160045260246000fd5b6000601f19601f8301169050919050565b61122681611155565b811461123157600080fd5b50565b61123d81611193565b811461124857600080fd5b5056fea26469706673582212203a5c25f0ceba311169aff81d3d024db9bece0e7f9f47d8622734fe1da8e0d55e64736f6c63430008000033",
  "immutableReferences": {},
  "source": "// SPDX-License-Identifier: MIT\r\npragma solidity ^0.8.0;\r\n\r\ncontract Ktoken {\r\n    string public constant name = \"Ktoken\";\r\n    string public constant symbol = \"Ktoken\";\r\n    uint8 public constant decimals = 18;\r\n    uint256 public INITIAL_SUPPLY = 10000000000000000000000000;\r\n\r\n    event Approval(\r\n        address indexed tokenOwner,\r\n        address indexed spender,\r\n        uint256 tokens\r\n    );\r\n    event Transfer(address indexed from, address indexed to, uint256 tokens);\r\n    event _mint(address reciever, uint256 amount);\r\n\r\n    mapping(address => uint256) balances;\r\n\r\n    mapping(address => mapping(address => uint256)) allowed;\r\n\r\n    uint256 totalSupply_;\r\n\r\n    address private _admin =\r\n        address(0x1Bf87D4d8049AEd774Fe118971e87a315819e772);\r\n\r\n    using SafeMath for uint256;\r\n\r\n    constructor() public {\r\n        totalSupply_ = INITIAL_SUPPLY;\r\n        balances[msg.sender] = totalSupply_;\r\n    }\r\n\r\n    function totalSupply() public view returns (uint256) {\r\n        return totalSupply_;\r\n    }\r\n\r\n    function balanceOf(address tokenOwner) public view returns (uint256) {\r\n        return balances[tokenOwner];\r\n    }\r\n\r\n    function transfer(address receiver, uint256 numTokens)\r\n        public\r\n        returns (bool)\r\n    {\r\n        require(numTokens <= balances[msg.sender]);\r\n        balances[msg.sender] = balances[msg.sender].sub(numTokens);\r\n        balances[receiver] = balances[receiver].add(numTokens);\r\n        emit Transfer(msg.sender, receiver, numTokens);\r\n        return true;\r\n    }\r\n\r\n    function approve(address delegate, uint256 numTokens)\r\n        public\r\n        returns (bool)\r\n    {\r\n        allowed[msg.sender][delegate] = numTokens;\r\n        emit Approval(msg.sender, delegate, numTokens);\r\n        return true;\r\n    }\r\n\r\n    function allowance(address owner, address delegate)\r\n        public\r\n        view\r\n        returns (uint256)\r\n    {\r\n        return allowed[owner][delegate];\r\n    }\r\n\r\n    function transferFrom(\r\n        address owner,\r\n        address buyer,\r\n        uint256 numTokens\r\n    ) public returns (bool) {\r\n        require(numTokens <= balances[owner]);\r\n        require(numTokens <= allowed[owner][msg.sender]);\r\n\r\n        balances[owner] = balances[owner].sub(numTokens);\r\n        allowed[owner][msg.sender] = allowed[owner][msg.sender].sub(numTokens);\r\n        balances[buyer] = balances[buyer].add(numTokens);\r\n        emit Transfer(owner, buyer, numTokens);\r\n        return true;\r\n    }\r\n\r\n    modifier onlyAdmin(address _address) {\r\n        require(_address == _admin, \"Invalid admin address!\");\r\n        _;\r\n    }\r\n\r\n    function mint(address receiver, uint256 amount)\r\n        public\r\n        onlyAdmin(msg.sender)\r\n        returns (bool)\r\n    {\r\n        balances[receiver] = balances[receiver].add(amount);\r\n        emit _mint(receiver, amount);\r\n        return true;\r\n    } \r\n\r\n    function updateAdmin(address newAdmin)\r\n        public\r\n        onlyAdmin(msg.sender)\r\n        returns (bool)\r\n    {\r\n        _admin = newAdmin;\r\n        return true;\r\n    }\r\n\r\n    function getSymbol() public pure returns (string memory) {\r\n        return symbol;\r\n    }\r\n\r\n    function getName() public pure returns (string memory) {\r\n        return name;\r\n    }\r\n}\r\n\r\nlibrary SafeMath {\r\n    function sub(uint256 a, uint256 b) internal pure returns (uint256) {\r\n        assert(b <= a);\r\n        return a - b;\r\n    }\r\n\r\n    function add(uint256 a, uint256 b) internal pure returns (uint256) {\r\n        uint256 c = a + b;\r\n        assert(c >= a);\r\n        return c;\r\n    }\r\n}\r\n",
  "sourcePath": "/mnt/d/PRACTICE/web3example/web3example/contract/contracts/Ktoken.sol",
  "compiler": {
    "name": "solc",
    "version": "0.8.0+commit.c7dfd78e.Emscripten.clang"
  },
  "schemaVersion": "3.4.1",
  "updatedAt": "2021-06-07T10:05:23.607Z",
  "networkType": "ethereum",
  "devdoc": {
    "kind": "dev",
    "methods": {},
    "version": 1
  },
  "userdoc": {
    "kind": "user",
    "methods": {},
    "version": 1
  }
}