{
  "contractName": "PriceFeed",
  "abi": [
    {
      "anonymous": false,
      "inputs": [
        {
          "indexed": false,
          "internalType": "address",
          "name": "_token",
          "type": "address"
        },
        {
          "indexed": false,
          "internalType": "uint256",
          "name": "_price",
          "type": "uint256"
        },
        {
          "indexed": false,
          "internalType": "uint256",
          "name": "_createdAt",
          "type": "uint256"
        }
      ],
      "name": "UpdatePrice",
      "type": "event"
    },
    {
      "inputs": [
        {
          "internalType": "address",
          "name": "_token",
          "type": "address"
        },
        {
          "internalType": "uint256",
          "name": "_price",
          "type": "uint256"
        }
      ],
      "name": "updatePrice",
      "outputs": [],
      "stateMutability": "nonpayable",
      "type": "function"
    },
    {
      "inputs": [
        {
          "internalType": "address",
          "name": "_token",
          "type": "address"
        }
      ],
      "name": "getPrice",
      "outputs": [
        {
          "internalType": "uint256",
          "name": "",
          "type": "uint256"
        }
      ],
      "stateMutability": "view",
      "type": "function",
      "constant": true
    }
  ],
  "bytecode": "0x608060405234801561001057600080fd5b506102fe806100206000396000f3fe608060405234801561001057600080fd5b50600436106100365760003560e01c806341976e091461003b578063457972de1461006b575b600080fd5b61005560048036038101906100509190610189565b610087565b6040516100629190610243565b60405180910390f35b610085600480360381019061008091906101b2565b6100cf565b005b60008060008373ffffffffffffffffffffffffffffffffffffffff1673ffffffffffffffffffffffffffffffffffffffff168152602001908152602001600020549050919050565b6100d982826100dd565b5050565b806000808473ffffffffffffffffffffffffffffffffffffffff1673ffffffffffffffffffffffffffffffffffffffff168152602001908152602001600020819055507f7c3bda8adcb9df1edd0059da351d966538bcc99f067c0770872170ac97fb68878282426040516101539392919061020c565b60405180910390a15050565b60008135905061016e8161029a565b92915050565b600081359050610183816102b1565b92915050565b60006020828403121561019b57600080fd5b60006101a98482850161015f565b91505092915050565b600080604083850312156101c557600080fd5b60006101d38582860161015f565b92505060206101e485828601610174565b9150509250929050565b6101f78161025e565b82525050565b61020681610290565b82525050565b600060608201905061022160008301866101ee565b61022e60208301856101fd565b61023b60408301846101fd565b949350505050565b600060208201905061025860008301846101fd565b92915050565b600061026982610270565b9050919050565b600073ffffffffffffffffffffffffffffffffffffffff82169050919050565b6000819050919050565b6102a38161025e565b81146102ae57600080fd5b50565b6102ba81610290565b81146102c557600080fd5b5056fea264697066735822122092d481883bb96fd086be5326706167d8672b4ccef0cbdfa5cc134bb85eddb3bf64736f6c63430008000033",
  "immutableReferences": {},
  "source": "// SPDX-License-Identifier: MIT\r\npragma solidity ^0.8.0;\r\ncontract PriceFeed {\r\n\r\n    event UpdatePrice(\r\n        address _token,\r\n        uint _price,\r\n        uint _createdAt\r\n    );\r\n\r\n    mapping(address => uint) private _tokenPrice;\r\n\r\n\r\n    function _updatePrice(\r\n        address _token,\r\n        uint _price\r\n    )\r\n        internal\r\n    {\r\n        _tokenPrice[_token] = _price;\r\n        emit UpdatePrice(_token, _price, block.timestamp);\r\n    }\r\n\r\n    function updatePrice(\r\n        address _token,\r\n        uint _price\r\n    )\r\n        public\r\n    {\r\n        _updatePrice(_token, _price);\r\n    }\r\n\r\n    function getPrice(\r\n        address _token\r\n    )\r\n        public\r\n        view\r\n        returns(uint)\r\n    {\r\n        return _tokenPrice[_token];\r\n    }\r\n}",
  "sourcePath": "/mnt/d/PRACTICE/web3example/web3example/contract/contracts/PriceFeed.sol",
  "compiler": {
    "name": "solc",
    "version": "0.8.0+commit.c7dfd78e.Emscripten.clang"
  },
  "schemaVersion": "3.4.1",
  "updatedAt": "2021-06-02T11:02:24.501Z",
  "networkType": "ethereum",
  "devdoc": {
    "kind": "dev",
    "methods": {},
    "version": 1
  },
  "userdoc": {
    "kind": "user",
    "methods": {},
    "version": 1
  }
}