{
  "contractName": "TokenTest",
  "abi": [
    {
      "inputs": [],
      "stateMutability": "nonpayable",
      "type": "constructor"
    },
    {
      "anonymous": false,
      "inputs": [
        {
          "indexed": true,
          "internalType": "address",
          "name": "tokenOwner",
          "type": "address"
        },
        {
          "indexed": true,
          "internalType": "address",
          "name": "spender",
          "type": "address"
        },
        {
          "indexed": false,
          "internalType": "uint256",
          "name": "tokens",
          "type": "uint256"
        }
      ],
      "name": "Approval",
      "type": "event"
    },
    {
      "anonymous": false,
      "inputs": [
        {
          "indexed": true,
          "internalType": "address",
          "name": "from",
          "type": "address"
        },
        {
          "indexed": true,
          "internalType": "address",
          "name": "to",
          "type": "address"
        },
        {
          "indexed": false,
          "internalType": "uint256",
          "name": "tokens",
          "type": "uint256"
        }
      ],
      "name": "Transfer",
      "type": "event"
    },
    {
      "anonymous": false,
      "inputs": [
        {
          "indexed": false,
          "internalType": "address",
          "name": "reciever",
          "type": "address"
        },
        {
          "indexed": false,
          "internalType": "uint256",
          "name": "amount",
          "type": "uint256"
        }
      ],
      "name": "_mint",
      "type": "event"
    },
    {
      "inputs": [],
      "name": "INITIAL_SUPPLY",
      "outputs": [
        {
          "internalType": "uint256",
          "name": "",
          "type": "uint256"
        }
      ],
      "stateMutability": "view",
      "type": "function",
      "constant": true
    },
    {
      "inputs": [],
      "name": "decimals",
      "outputs": [
        {
          "internalType": "uint8",
          "name": "",
          "type": "uint8"
        }
      ],
      "stateMutability": "view",
      "type": "function",
      "constant": true
    },
    {
      "inputs": [],
      "name": "name",
      "outputs": [
        {
          "internalType": "string",
          "name": "",
          "type": "string"
        }
      ],
      "stateMutability": "view",
      "type": "function",
      "constant": true
    },
    {
      "inputs": [],
      "name": "symbol",
      "outputs": [
        {
          "internalType": "string",
          "name": "",
          "type": "string"
        }
      ],
      "stateMutability": "view",
      "type": "function",
      "constant": true
    },
    {
      "inputs": [],
      "name": "totalSupply",
      "outputs": [
        {
          "internalType": "uint256",
          "name": "",
          "type": "uint256"
        }
      ],
      "stateMutability": "view",
      "type": "function",
      "constant": true
    },
    {
      "inputs": [
        {
          "internalType": "address",
          "name": "tokenOwner",
          "type": "address"
        }
      ],
      "name": "balanceOf",
      "outputs": [
        {
          "internalType": "uint256",
          "name": "",
          "type": "uint256"
        }
      ],
      "stateMutability": "view",
      "type": "function",
      "constant": true
    },
    {
      "inputs": [
        {
          "internalType": "address",
          "name": "receiver",
          "type": "address"
        },
        {
          "internalType": "uint256",
          "name": "numTokens",
          "type": "uint256"
        }
      ],
      "name": "transfer",
      "outputs": [
        {
          "internalType": "bool",
          "name": "",
          "type": "bool"
        }
      ],
      "stateMutability": "nonpayable",
      "type": "function"
    },
    {
      "inputs": [
        {
          "internalType": "address",
          "name": "delegate",
          "type": "address"
        },
        {
          "internalType": "uint256",
          "name": "numTokens",
          "type": "uint256"
        }
      ],
      "name": "approve",
      "outputs": [
        {
          "internalType": "bool",
          "name": "",
          "type": "bool"
        }
      ],
      "stateMutability": "nonpayable",
      "type": "function"
    },
    {
      "inputs": [
        {
          "internalType": "address",
          "name": "owner",
          "type": "address"
        },
        {
          "internalType": "address",
          "name": "delegate",
          "type": "address"
        }
      ],
      "name": "allowance",
      "outputs": [
        {
          "internalType": "uint256",
          "name": "",
          "type": "uint256"
        }
      ],
      "stateMutability": "view",
      "type": "function",
      "constant": true
    },
    {
      "inputs": [
        {
          "internalType": "address",
          "name": "owner",
          "type": "address"
        },
        {
          "internalType": "address",
          "name": "buyer",
          "type": "address"
        },
        {
          "internalType": "uint256",
          "name": "numTokens",
          "type": "uint256"
        }
      ],
      "name": "transferFrom",
      "outputs": [
        {
          "internalType": "bool",
          "name": "",
          "type": "bool"
        }
      ],
      "stateMutability": "nonpayable",
      "type": "function"
    },
    {
      "inputs": [
        {
          "internalType": "address",
          "name": "receiver",
          "type": "address"
        },
        {
          "internalType": "uint256",
          "name": "amount",
          "type": "uint256"
        }
      ],
      "name": "mint",
      "outputs": [
        {
          "internalType": "bool",
          "name": "",
          "type": "bool"
        }
      ],
      "stateMutability": "nonpayable",
      "type": "function"
    },
    {
      "inputs": [],
      "name": "getSymbol",
      "outputs": [
        {
          "internalType": "string",
          "name": "",
          "type": "string"
        }
      ],
      "stateMutability": "pure",
      "type": "function",
      "constant": true
    },
    {
      "inputs": [],
      "name": "getName",
      "outputs": [
        {
          "internalType": "string",
          "name": "",
          "type": "string"
        }
      ],
      "stateMutability": "pure",
      "type": "function",
      "constant": true
    }
  ],
  "bytecode": "0x608060405264e8d4a5100060005534801561001957600080fd5b50600054600381905550600354600160003373ffffffffffffffffffffffffffffffffffffffff1673ffffffffffffffffffffffffffffffffffffffff16815260200190815260200160002081905550611066806100786000396000f3fe608060405234801561001057600080fd5b50600436106100cf5760003560e01c80632ff2e9dc1161008c57806370a082311161006657806370a082311461021857806395d89b4114610248578063a9059cbb14610266578063dd62ed3e14610296576100cf565b80632ff2e9dc146101ac578063313ce567146101ca57806340c10f19146101e8576100cf565b806306fdde03146100d4578063095ea7b3146100f2578063150704011461012257806317d7de7c1461014057806318160ddd1461015e57806323b872dd1461017c575b600080fd5b6100dc6102c6565b6040516100e99190610e3c565b60405180910390f35b61010c60048036038101906101079190610d47565b6102ff565b6040516101199190610e21565b60405180910390f35b61012a6103f1565b6040516101379190610e3c565b60405180910390f35b61014861042e565b6040516101559190610e3c565b60405180910390f35b61016661046b565b6040516101739190610e5e565b60405180910390f35b61019660048036038101906101919190610cf8565b610475565b6040516101a39190610e21565b60405180910390f35b6101b46107f5565b6040516101c19190610e5e565b60405180910390f35b6101d26107fb565b6040516101df9190610e79565b60405180910390f35b61020260048036038101906101fd9190610d47565b610800565b60405161020f9190610e21565b60405180910390f35b610232600480360381019061022d9190610c93565b6108da565b60405161023f9190610e5e565b60405180910390f35b610250610923565b60405161025d9190610e3c565b60405180910390f35b610280600480360381019061027b9190610d47565b61095c565b60405161028d9190610e21565b60405180910390f35b6102b060048036038101906102ab9190610cbc565b610b43565b6040516102bd9190610e5e565b60405180910390f35b6040518060400160405280600981526020017f546f6b656e54657374000000000000000000000000000000000000000000000081525081565b600081600260003373ffffffffffffffffffffffffffffffffffffffff1673ffffffffffffffffffffffffffffffffffffffff16815260200190815260200160002060008573ffffffffffffffffffffffffffffffffffffffff1673ffffffffffffffffffffffffffffffffffffffff168152602001908152602001600020819055508273ffffffffffffffffffffffffffffffffffffffff163373ffffffffffffffffffffffffffffffffffffffff167f8c5be1e5ebec7d5bd14f71427d1e84f3dd0314c0f7b2291e5b200ac8c7c3b925846040516103df9190610e5e565b60405180910390a36001905092915050565b60606040518060400160405280600481526020017f5445535400000000000000000000000000000000000000000000000000000000815250905090565b60606040518060400160405280600981526020017f546f6b656e546573740000000000000000000000000000000000000000000000815250905090565b6000600354905090565b6000600160008573ffffffffffffffffffffffffffffffffffffffff1673ffffffffffffffffffffffffffffffffffffffff168152602001908152602001600020548211156104c357600080fd5b600260008573ffffffffffffffffffffffffffffffffffffffff1673ffffffffffffffffffffffffffffffffffffffff16815260200190815260200160002060003373ffffffffffffffffffffffffffffffffffffffff1673ffffffffffffffffffffffffffffffffffffffff1681526020019081526020016000205482111561054c57600080fd5b61059e82600160008773ffffffffffffffffffffffffffffffffffffffff1673ffffffffffffffffffffffffffffffffffffffff16815260200190815260200160002054610bca90919063ffffffff16565b600160008673ffffffffffffffffffffffffffffffffffffffff1673ffffffffffffffffffffffffffffffffffffffff1681526020019081526020016000208190555061067082600260008773ffffffffffffffffffffffffffffffffffffffff1673ffffffffffffffffffffffffffffffffffffffff16815260200190815260200160002060003373ffffffffffffffffffffffffffffffffffffffff1673ffffffffffffffffffffffffffffffffffffffff16815260200190815260200160002054610bca90919063ffffffff16565b600260008673ffffffffffffffffffffffffffffffffffffffff1673ffffffffffffffffffffffffffffffffffffffff16815260200190815260200160002060003373ffffffffffffffffffffffffffffffffffffffff1673ffffffffffffffffffffffffffffffffffffffff1681526020019081526020016000208190555061074282600160008673ffffffffffffffffffffffffffffffffffffffff1673ffffffffffffffffffffffffffffffffffffffff16815260200190815260200160002054610c1790919063ffffffff16565b600160008573ffffffffffffffffffffffffffffffffffffffff1673ffffffffffffffffffffffffffffffffffffffff168152602001908152602001600020819055508273ffffffffffffffffffffffffffffffffffffffff168473ffffffffffffffffffffffffffffffffffffffff167fddf252ad1be2c89b69c2b068fc378daa952ba7f163c4a11628f55a4df523b3ef846040516107e29190610e5e565b60405180910390a3600190509392505050565b60005481565b601281565b600061085482600160008673ffffffffffffffffffffffffffffffffffffffff1673ffffffffffffffffffffffffffffffffffffffff16815260200190815260200160002054610c1790919063ffffffff16565b600160008573ffffffffffffffffffffffffffffffffffffffff1673ffffffffffffffffffffffffffffffffffffffff168152602001908152602001600020819055507f4e6ec2477b215d44bbbdd0f5815b8827188f1eb827c01cc00f7f983582322afa83836040516108c8929190610df8565b60405180910390a16001905092915050565b6000600160008373ffffffffffffffffffffffffffffffffffffffff1673ffffffffffffffffffffffffffffffffffffffff168152602001908152602001600020549050919050565b6040518060400160405280600481526020017f544553540000000000000000000000000000000000000000000000000000000081525081565b6000600160003373ffffffffffffffffffffffffffffffffffffffff1673ffffffffffffffffffffffffffffffffffffffff168152602001908152602001600020548211156109aa57600080fd5b6109fc82600160003373ffffffffffffffffffffffffffffffffffffffff1673ffffffffffffffffffffffffffffffffffffffff16815260200190815260200160002054610bca90919063ffffffff16565b600160003373ffffffffffffffffffffffffffffffffffffffff1673ffffffffffffffffffffffffffffffffffffffff16815260200190815260200160002081905550610a9182600160008673ffffffffffffffffffffffffffffffffffffffff1673ffffffffffffffffffffffffffffffffffffffff16815260200190815260200160002054610c1790919063ffffffff16565b600160008573ffffffffffffffffffffffffffffffffffffffff1673ffffffffffffffffffffffffffffffffffffffff168152602001908152602001600020819055508273ffffffffffffffffffffffffffffffffffffffff163373ffffffffffffffffffffffffffffffffffffffff167fddf252ad1be2c89b69c2b068fc378daa952ba7f163c4a11628f55a4df523b3ef84604051610b319190610e5e565b60405180910390a36001905092915050565b6000600260008473ffffffffffffffffffffffffffffffffffffffff1673ffffffffffffffffffffffffffffffffffffffff16815260200190815260200160002060008373ffffffffffffffffffffffffffffffffffffffff1673ffffffffffffffffffffffffffffffffffffffff16815260200190815260200160002054905092915050565b600082821115610c03577f4e487b7100000000000000000000000000000000000000000000000000000000600052600160045260246000fd5b8183610c0f9190610f06565b905092915050565b6000808284610c269190610eb0565b905083811015610c5f577f4e487b7100000000000000000000000000000000000000000000000000000000600052600160045260246000fd5b8091505092915050565b600081359050610c7881611002565b92915050565b600081359050610c8d81611019565b92915050565b600060208284031215610ca557600080fd5b6000610cb384828501610c69565b91505092915050565b60008060408385031215610ccf57600080fd5b6000610cdd85828601610c69565b9250506020610cee85828601610c69565b9150509250929050565b600080600060608486031215610d0d57600080fd5b6000610d1b86828701610c69565b9350506020610d2c86828701610c69565b9250506040610d3d86828701610c7e565b9150509250925092565b60008060408385031215610d5a57600080fd5b6000610d6885828601610c69565b9250506020610d7985828601610c7e565b9150509250929050565b610d8c81610f3a565b82525050565b610d9b81610f4c565b82525050565b6000610dac82610e94565b610db68185610e9f565b9350610dc6818560208601610f8f565b610dcf81610ff1565b840191505092915050565b610de381610f78565b82525050565b610df281610f82565b82525050565b6000604082019050610e0d6000830185610d83565b610e1a6020830184610dda565b9392505050565b6000602082019050610e366000830184610d92565b92915050565b60006020820190508181036000830152610e568184610da1565b905092915050565b6000602082019050610e736000830184610dda565b92915050565b6000602082019050610e8e6000830184610de9565b92915050565b600081519050919050565b600082825260208201905092915050565b6000610ebb82610f78565b9150610ec683610f78565b9250827fffffffffffffffffffffffffffffffffffffffffffffffffffffffffffffffff03821115610efb57610efa610fc2565b5b828201905092915050565b6000610f1182610f78565b9150610f1c83610f78565b925082821015610f2f57610f2e610fc2565b5b828203905092915050565b6000610f4582610f58565b9050919050565b60008115159050919050565b600073ffffffffffffffffffffffffffffffffffffffff82169050919050565b6000819050919050565b600060ff82169050919050565b60005b83811015610fad578082015181840152602081019050610f92565b83811115610fbc576000848401525b50505050565b7f4e487b7100000000000000000000000000000000000000000000000000000000600052601160045260246000fd5b6000601f19601f8301169050919050565b61100b81610f3a565b811461101657600080fd5b50565b61102281610f78565b811461102d57600080fd5b5056fea2646970667358221220ddb0d25c254b1ad0a748b8e37dc0335ffa3a27fb1f910cac930b0aa6b8e8c3a964736f6c63430008000033",
  "immutableReferences": {},
  "source": "pragma solidity ^0.8.0;\r\n\r\ncontract TokenTest {\r\n\r\n    string public constant name = \"TokenTest\";\r\n    string public constant symbol = \"TEST\";\r\n    uint8 public constant decimals = 18;  \r\n    uint public INITIAL_SUPPLY = 1000000000000;\r\n\r\n    event Approval(address indexed tokenOwner, address indexed spender, uint tokens);\r\n    event Transfer(address indexed from, address indexed to, uint tokens);\r\n    event _mint (address reciever, uint amount);\r\n\r\n    mapping(address => uint256) balances;\r\n\r\n    mapping(address => mapping (address => uint256)) allowed;\r\n    \r\n    uint256 totalSupply_;\r\n\r\n    using SafeMath for uint256;\r\n\r\n\r\n   constructor() public {  \r\n\ttotalSupply_ = INITIAL_SUPPLY;\r\n\tbalances[msg.sender] = totalSupply_;\r\n    }  \r\n\r\n    function totalSupply() public view returns (uint256) {\r\n\treturn totalSupply_;\r\n    }\r\n    \r\n    function balanceOf(address tokenOwner) public view returns (uint) {\r\n        return balances[tokenOwner];\r\n    }\r\n\r\n    function transfer(address receiver, uint numTokens) public returns (bool) {\r\n        require(numTokens <= balances[msg.sender]);\r\n        balances[msg.sender] = balances[msg.sender].sub(numTokens);\r\n        balances[receiver] = balances[receiver].add(numTokens);\r\n        emit Transfer(msg.sender, receiver, numTokens);\r\n        return true;\r\n    }\r\n\r\n    function approve(address delegate, uint numTokens) public returns (bool) {\r\n        allowed[msg.sender][delegate] = numTokens;\r\n        emit Approval(msg.sender, delegate, numTokens);\r\n        return true;\r\n    }\r\n\r\n    function allowance(address owner, address delegate) public view returns (uint) {\r\n        return allowed[owner][delegate];\r\n    }\r\n\r\n    function transferFrom(address owner, address buyer, uint numTokens) public returns (bool) {\r\n        require(numTokens <= balances[owner]);    \r\n        require(numTokens <= allowed[owner][msg.sender]);\r\n    \r\n        balances[owner] = balances[owner].sub(numTokens);\r\n        allowed[owner][msg.sender] = allowed[owner][msg.sender].sub(numTokens);\r\n        balances[buyer] = balances[buyer].add(numTokens);\r\n        emit Transfer(owner, buyer, numTokens);\r\n        return true;\r\n    }\r\n    //test function\r\n    function mint(address receiver, uint256 amount) public returns (bool) {\r\n          balances[receiver] = balances[receiver].add(amount);\r\n          emit _mint(receiver, amount);\r\n          return true;\r\n    }\r\n\r\n    function getSymbol () public pure returns(string memory)\r\n    {\r\n        return symbol;\r\n    }\r\n\r\n     function getName () public pure  returns(string memory)\r\n    {\r\n        return name;\r\n    }\r\n\r\n  \r\n}\r\n\r\nlibrary SafeMath { \r\n    function sub(uint256 a, uint256 b) internal pure returns (uint256) {\r\n      assert(b <= a);\r\n      return a - b;\r\n    }\r\n    \r\n    function add(uint256 a, uint256 b) internal pure returns (uint256) {\r\n      uint256 c = a + b;\r\n      assert(c >= a);\r\n      return c;\r\n    }\r\n}",
  "sourcePath": "/mnt/d/PRACTICE/web3example/web3example/contract/contracts/TokenTest.sol",
  "compiler": {
    "name": "solc",
    "version": "0.8.0+commit.c7dfd78e.Emscripten.clang"
  },
  "schemaVersion": "3.4.1",
  "updatedAt": "2021-06-02T11:11:32.470Z",
  "networkType": "ethereum",
  "devdoc": {
    "kind": "dev",
    "methods": {},
    "version": 1
  },
  "userdoc": {
    "kind": "user",
    "methods": {},
    "version": 1
  }
}